:020000040800F2
:10000000882C0020010100080D2C0008652900083B
:10001000092C00083D1500084531000800000000CB
:10002000000000000000000000000000CD2C0008CF
:100030005D15000800000000492C0008CF2C0008C6
:100040001B0100081B0100081B0100081B01000820
:100050001B0100081B0100081B0100081B01000810
:100060001B0100081B0100081B0100081B01000800
:100070001B0100081B0100081B0100081B010008F0
:100080001B0100081B0100081B0100081B010008E0
:100090001B0100081B0100081B0100081B010008D0
:1000A0001B010008CD2D00081B0100081B010008E2
:1000B0001B0100081B0100081B0100081B010008B0
:1000C0001B0100081B0100081B0100081B010008A0
:1000D0001B0100089D300008D53000080D310008D4
:1000E0001B0100081B0100081B010008DFF80CD0F1
:1000F00000F03AFA00480047E5450008882C002047
:100100000648804706480047FEE7FEE7FEE7FEE7B1
:10011000FEE7FEE7FEE7FEE7FEE7FEE7412D00080B
:10012000ED000008202A04DB203A21FA02F0002129
:10013000704721FA02F3D040C2F1200291400843F7
:1001400019467047D2B201E000F8012B491EFBD2DC
:1001500070470022F6E710B513460A4604461946D2
:10016000FFF7F0FF204610BD30B50B4601460020DA
:100170002022012409E021FA02F59D4205D303FA69
:1001800002F5491B04FA02F52844151EA2F10102EA
:10019000F1DC30BD2DE9F05F0546002092469B461C
:1001A00088460646814640241BE02846414647468D
:1001B0002246FFF7B7FF53465A46C01A914110D363
:1001C00011461846224600F0E1F92D1A67EB0108A6
:1001D0004F4622460120002100F0D8F917EB000914
:1001E0004E41201EA4F10104DFDC484631462A4678
:1001F0004346BDE8F09F2DE9FE4F804681EA0300AB
:10020000C00F0C46009021F0004123F00045B8EBF0
:100210000200A94105D24046214690461C460B46A5
:10022000024623F00040104347D0270DC7F30A00D1
:10023000C3F30A510290401A019040286BDAC3F3CD
:10024000130040F4801B0098924620B10023D2EBAB
:10025000030A63EB0B0B01985946C0F1400250466C
:1002600000F094F906460D4650465946019A00F0B2
:100270009CF910EB08006141002487EA115284EADE
:10028000E7731A4340D0009A62B3019A012A4FEAF9
:10029000075215DC001B61EB02014FF0004202EA3D
:1002A0000752CDE90042001C41F5801132462B4631
:1002B00000F09CF903B0BDE8F08F40462146F9E715
:1002C000001B61EB0201001C41F5801300185B412B
:1002D0002018A2F5001747EB030140EAD570B619C4
:1002E0006D4111E06D084FEA360645EAC0754FEAE8
:1002F0000752001B61EB0201001C41F58011490807
:100300004FEA30000019514132462B4603B0BDE898
:10031000F04F00F05CB90098012240000023D0EBC0
:10032000020263EBE073009821464FEAE074B8EBF9
:10033000000061EB0401E9E783F000435BE781F033
:10034000004158E72DE9FE4F81EA030404F0004420
:1003500021F0004100944FF0000B23F0004350EADD
:1003600001045ED052EA03045BD0C3F30A54C1F324
:100370000A552C44A4F2F3340194A0FB0254C1F3B7
:10038000130141F48011C3F3130343F4801301FB01
:10039000024400FB034E840A970A44EA815447EA68
:1003A0008357A4FB076802958D0A05FB07854FEA72
:1003B000932C04FB0C542705029D4FEA065847EA8C
:1003C0001637B5EB08056EEB070C870E920E47EA61
:1003D000811742EA8312A7FB0201B6EB0B0164EB23
:1003E00000042B0D43EA0C335E1844EB1C50DA4634
:1003F0005146E7FB0201C5F313044FEA0B3343EA0E
:1004000014534FEA0432019C43EA0603A4F10C049E
:100410000294009CCDE900B400F0E8F803B0BDE818
:10042000F08F00200146F9E72DE9F04D81EA030441
:1004300004F0004B21F0004514464FF0000A23F071
:10044000004150EA050220D054EA01021DD0C5F354
:100450000A570246C5F31303C1F31300C1F30A564A
:1004600040F4801543F48013A7EB0608101BD64612
:1004700008F2FD3873EB050002D308F1010801E032
:1004800092185B41B8F1000F03DA00200146BDE885
:10049000F08D00204FF48011064684460EE0171BB5
:1004A00073EB050705D3121B63EB050306434CEA08
:1004B000010C49084FEA300092185B4150EA0107ED
:1004C000EDD152EA030012D082EA040083EA05016A
:1004D000084305D0101BAB4106D20122002306E0E1
:1004E00000224FF0004302E06FF0010253101AEBBC
:1004F00006004CEB085110EB0A0041EB0B01BDE884
:10050000F04D00F064B8C1F30A52C1F3130140F298
:10051000FF3341F480119A4202DA0020014670470D
:1005200040F233439A42A2F2334202DC5242FFF7D6
:10053000F9BD00F02BB8000030B5041E71F10004C5
:1005400004DB4FF00044404264EB0101141E73F1E0
:10055000000405DB1C464FF00043524263EB0403EA
:10056000994208BF904230BD064C074D06E0E06856
:1005700040F0010394E8070098471034AC42F6D3EA
:10058000FFF7B8FD6456000884560008202A04DBF3
:10059000203A00FA02F1002070479140C2F1200396
:1005A00020FA03F3194390407047202A06DBCB174B
:1005B000203A41FA02F043EAE07306E041FA02F31E
:1005C000D040C2F12002914008431946704710B54F
:1005D000141E73F1000408DA401C41F10001921866
:1005E0005B411A4301D120F0010010BD2DE9F04D0F
:1005F00092469B4611B1B1FA81F202E0B0FA80F264
:1006000020329046FFF7C2FF04460F4640EA0A0038
:1006100041EA0B0153465A46084313D0114653EAA8
:10062000010019D0C8F140025046FFF77BFD054696
:100630000E46504659464246FFF7A8FF084305D0EC
:10064000012004E020463946BDE8F08D0020054336
:1006500046EAE0762C4337430A986305E40AA0EBA8
:1006600008000022FD0A44EA47540A3002D500205F
:100670000146E9E7010510196941DDE9084500195E
:100680006941BDE8F04DA2E770B58C1810F8015B28
:1006900015F0070301D110F8013B2A1106D110F81B
:1006A000012B03E010F8016B01F8016B5B1EF9D11F
:1006B0002B0705D40023521E0DD401F8013BFAE7A5
:1006C00010F8013BCB1A921C03E013F8015B01F810
:1006D000015B521EF9D5A142D8D3002070BD0000A5
:1006E00010B5714804F001FB70480078052872D2FB
:1006F000DFE800F0032634A4AF0000206C49086056
:1007000003F080FE6B480078C8B16A48407806283C
:1007100015DA00206849087042F21070624988605A
:10072000084604F0FCFA4FF47A70644908806420AB
:10073000634908805D480078401C5C490870A2E06D
:100740005C49087800F038F938B158480078401C06
:1007500056490870544804F0E2FA94E05948007889
:1007600048B10020574908704F4804F0D8FA514961
:10077000087800F07BFB4C4804F0CAFA00285CD0F3
:100780004C48007810280ED004DC05283CD00728FF
:100790004AD104E0162816D0172845D124E00020BD
:1007A0004249087048E044480078042803DA0420ED
:1007B0003E49087006E03F48017843A004F028FE57
:1007C00003F0D8FE38E03C480078042804DA04201E
:1007D0003649087007E055E0364801783AA004F041
:1007E00017FE03F0C7FE27E033480078042803DA39
:1007F00004202E49087006E02E48017832A004F04B
:1008000007FE03F0B7FE17E02B480078042803DA50
:1008100004202649087006E0264801782AA004F042
:10082000F7FD03F0A7FE07E02248017826A004F0B8
:10083000EFFD03F09FFE00BF00BF24E020480088CA
:1008400003F072F920B10020184908701A490870A5
:1008500019E01A48008803F067F990B101201349A4
:1008600008701FA004F0D4FD13480078401C124902
:10087000087008460078C82803DB0020087003F0E1
:1008800079FE00E000BF00BF09480068401C08492D
:100890000860084600681449884204D300200449CF
:1008A000086003F067FE10BD780000205E000020A5
:1008B00004010020DC000020ED000020900000205A
:1008C000F0000020980000200D0A204154D6B8C145
:1008D000EEB3ACCAB1B8B4CEBBA3BA25640D0A005E
:1008E000D6D8B7A20D0A0000C027090010B51E48CF
:1008F00004F00EFA002835D001201C4908701C486D
:1009000004F0D0FD1BA11D4803F065FF10B11CA031
:1009100004F07EFD1DA1194803F05DFF38B11EA053
:1009200004F076FD00201F49487003F023FE1EA14D
:10093000124803F050FF78B1104803F0CAFE044695
:10094000302C09DB362C07DA0022A4F130001549DF
:10095000091D51F820004270084803F07EFF012075
:100960001449087010BD00006C00002099000020A0
:10097000E4000020434D452B31303000C8080020F2
:10098000D6B8C1EEB4EDCEF30D0A00002B504450A2
:1009900020444541435400000D0AD2ECB3A3CDCB13
:1009A000B3F60000D80700202C20434C4F53454499
:1009B0000000000098000020FEB505460020B04968
:1009C0000870192D70D2DFE805F06F0D181F262D65
:1009D000343B4249505E578B9268707D8499A3D016
:1009E000F9F8DE00A7A004F013FDA6A002F0ACFB0E
:1009F0004EF66020A54988603FE1A5A004F008FDFF
:100A0000A3A002F0A1FB38E1A3A004F001FDA2A085
:100A100002F09AFB31E1A4A004F0FAFCA2A002F0DB
:100A200093FB2AE1A3A004F0F3FCA2A002F08CFB4C
:100A300023E1A3A004F0ECFCA1A002F085FB1CE1E3
:100A4000A2A004F0E5FCA1A002F07EFB15E1A2A0AB
:100A500004F0DEFCA0A002F077FB0EE1A1A004F000
:100A6000D7FCA0A002F070FB07E1A2A004F0D0FC2C
:100A7000A0A002F069FB00E1A4A004F0C9FCA3A0BF
:100A800002F062FBF9E0A5A004F0C2FCA3A002F012
:100A90005BFBA6487D498860EFE0A5A004F0B8FCA8
:100AA000A3A002F051FBE8E0E6E0A5A004F0B0FC52
:100AB000A3A002F049FB0020A4490870A448734990
:100AC0008860DAE0A3A004F0A3FCA2A002F03CFB43
:100AD000D3E0A4A004F09CFCA2A002F035FBCCE083
:100AE000A4A004F095FCA3A002F02EFBC5E0A5A0F5
:100AF00004F08EFCA3A002F027FBBEE0A5A004F04A
:100B000087FCA4A002F020FBAA4860498860B4E0FA
:100B1000A8485E498860A8A004F07AFCAA484178F9
:100B2000AA4850F82100C188A7484278A74850F841
:100B300022004079A44A5378A44A52F8232012791B
:100B4000CDE900200291A0484778A04850F827003E
:100B5000C3789D4847789D4850F8270082789A4886
:100B600041789BA002F0F0FA87E0924847498860FC
:100B700095484178A0A004F04BFC934841789EA092
:100B800002F0E2FA79E04FF47A60404988608E48DA
:100B900041788E4850F82100407802282AD18A48AE
:100BA00040789949085CF8B987484178874850F8F7
:100BB000210000698488214601E050E01FE093A0F5
:100BC00004F026FC002C0BDD7F48417893A004F054
:100BD0001FFC7D484178224696A002F0B5FA0DE050
:100BE000002099490870FEBD77484178182002F02E
:100BF00043FF03E0002094490870F4E73DE04FF420
:100C00007A602249886070484178704850F8210025
:100C1000407802281ED16C4840787B49085C98B91E
:100C200069484178694850F821008068868866489C
:100C3000417832467FA004F0EBFB634841783246AE
:100C40007CA002F081FA09E05F484178162002F0AA
:100C500013FF03E000207C490870C4E70DE04FF467
:100C60007A600A49886079A004F0D2FB564841783E
:100C70007AA002F069FA00E000BF00BF0120B2E7ED
:100C800098000020415445300D0A000078000020F3
:100C9000415445310D0A000041542B4950523D3119
:100CA00031353230300D0A0041542B4350494E3F0C
:100CB0000D0A000041542B4353510D0A000000005F
:100CC00041542B435245473F0D0A000041542B43EA
:100CD000475245473F0D0A0041542B434741545466
:100CE0003F0D0A0041542B51494647434E543D3075
:100CF0000D0A000041542B5149435347503D312CBC
:100D00002022434D4E4554220D0A000041542B51E0
:100D1000494D4F44453D300D0A00000041542B51D0
:100D20004944454143540D0A00000000A0860100DB
:100D300041542B51495245474150500D0A00000083
:100D400041542B51494143540D0A0000EE0000204C
:100D500080A9030041542B51494C4F4349500D0A7F
:100D60000000000041542B51494D55583D310D0AAA
:100D70000000000041542B514953484F5752413D08
:100D8000300D0A0041542B51494E44493D300D0A63
:100D90000000000041542B5150494E473D227777C7
:100DA000772E62616964752E636F6D222C32302C50
:100DB000310D0A00F0490200C1ACBDD3736F636B03
:100DC00065740D0A00000000DC000020DC07002034
:100DD00041542B51494F50454E3D25642C225443DC
:100DE00050222C2225642E25642E25642E25642273
:100DF0002C25640D0A00000041542B5149434C4FEF
:100E000053453D25640D0A0092000020D0C4CCF863
:100E1000B3A4B6C8A3BA2564000000000D0A736F1E
:100E20006365745F2564B7A2CBCDD0C4CCF80D0A3E
:100E30002000000041542B514953454E443D256448
:100E40002C25640D0A0000005E00002041542B5147
:100E5000495341434B3D300D0A00000041542B5192
:100E6000495341434B3D25640D0A000010B504462B
:100E7000192C1AD2DFE804F0190D1A2734486D8BAB
:100E8000AAC4CDDFD6FBFAFCF8F7F6F5F4F3F2F1DD
:100E9000F000FEA1FE4803F09EFC18B10320FD49BE
:100EA000087002E00420FB49087012E3F7A1F8483B
:100EB00003F091FC18B10320F649087002E003200A
:100EC000F449087005E3F1A1F14803F084FC18B17E
:100ED0000320F049087002E00320EE490870F8E2B0
:100EE000EDA1EB4803F077FC18B10320E949087045
:100EF00009E0EB480078142802DB03F03BFB02E03A
:100F00000420E4490870E4E2E14803F08DFCA0B15C
:100F1000DF4803F0EAFBDE4A117B906802F0C4FD73
:100F2000E049887008468078632806D008468078B3
:100F300018B10320D7490870CBE2D94800781428AB
:100F400003DB0320D349087002E00420D149087074
:100F5000BFE2D5A1CE4803F011FC68B1D4A1CC48C2
:100F600003F039FC20B9D3A1C94803F034FC18B10F
:100F70000320C8490870ACE2C9480078322802DB77
:100F800003F0F8FA02E00420C2490870A1E2CAA105
:100F9000BF4803F0F3FB68B1C5A1BD4803F01BFCDB
:100FA00020B9C4A1BA4803F016FC18B10320B9490E
:100FB00008708EE2BA480078322803DB0320B54976
:100FC000087002E00420B349087082E2BCA1B04876
:100FD00003F001FC40B1BCA1AD4803F0FCFB18B12B
:100FE0000320AC49087074E2AD4800780A2803DB9E
:100FF0000320A849087002E00420A649087068E2AE
:10100000B2A1A34803F0E7FB10B10320A149087087
:101010005FE2AEA19E4803F0DEFB10B103209D49C4
:10102000087056E2A9A19A4803F0D5FB10B103203D
:10103000984908704DE2A6A1954803F0CCFB10B189
:10104000032094490870A5A1914803F0C4FB10B196
:101050000420904908703CE2F7E0CAE19CE1E7E037
:101060009AE069E04EE040E017E001E057E022E25C
:1010700086A1874803F0AFFB18B1032085490870AB
:101080000AE0874800780A2803DB032081490870BA
:1010900002E004207F4908701BE27CA17C4803F039
:1010A0009AFB28B100208F49087003207949087005
:1010B0008AA1774803F08FFBB0B18A480078401CC2
:1010C0008849087008460078042804DB002008706E
:1010D00003F050FA08E0844802F0FAFD002071495C
:1010E000487003206B490870F3E17CA1684803F065
:1010F00072FB18B103206749087002E003206549BC
:101100000870E6E161A1624803F065FB18B10320B5
:101110006049087002E003205E490870D9E15BA1D4
:101120005B4803F058FB18B103205A49087002E0ED
:10113000032058490870CCE16CA1554803F04BFBE3
:1011400040B10320534908700220564948706AA0F4
:1011500004F05EF96BA14E4803F03DFB40B1032063
:101160004C49087000204F49487069A004F050F9BC
:101170006CA1474803F02FFB20B96DA1444803F050
:101180002AFB40B16DA004F043F9022045494870A4
:101190000320404908709CE16BA13D4803F01BFB14
:1011A00048B96EA13A4803F016FB20B94BA1384864
:1011B00003F011FB90B13A48007804280BDB0021C2
:1011C000684842783748001D50F8220041700020DE
:1011D0003049087002E004202E49087062A12C48B2
:1011E00003F0F9FA18B303202A49087002215D4878
:1011F00042782C48001D50F822004170594841782F
:10120000182003F081F957494A782649091D51F8F9
:10121000221001F1200003F082FD52494A78214951
:10122000091D51F8221001F1140003F078FD50E17E
:1012300016A1174803F0CFFA18B10320154908701A
:1012400002E003201349087043E14AA1104803F06B
:10125000C2FA40B143494A781249091D51F8221097
:10126000086903F089FD44A1094803F0B4FA38B1D4
:101270003C484178172003F047F9032005490870DE
:1012800016A1034803F0A7FA7AE000004F4B0000D4
:10129000C80800205E00002052454144590000006B
:1012A000ED000020D80700202B435245473A0000AC
:1012B0002C3100002C3500002B43475245473A00A3
:1012C0002B43474154543A00310000000000000015
:1012D0004445414354204F4B000000004552524FBB
:1012E00052000000EE000020CC0000202B5150499D
:1012F0004E473A20320000000D0A50494E47B3C90C
:10130000B9A600002B5150494E473A203500000045
:101310000D0ABCA4BBEE504450B3A1BEB0CAA7B0E6
:10132000DC0000002B5150494E473A2034000000A9
:101330002B5150494E473A203300000050494E4748
:10134000B3ACCAB10D0A0000414C414C5245414476
:101350005920434F4E4E4543544900004641494CA5
:1013600000000000DC000020434F4E4E4543542057
:101370004F4B00003E00000053454E44204F4B00B1
:1013800048B1032054490870002154484278544819
:1013900050F8220041709CE0AFF22801514803F060
:1013A0001AFA38B14D494A784D4951F822108868E7
:1013B00003F0E2FCAFF240014A4803F00CFA38B106
:1013C00046484178172002F057FB03204249087035
:1013D000AFF2F801434803F0FEF948B103203E495B
:1013E000087000213D4842783D4850F82200417085
:1013F0006FE03DA13B4803F0C1F948B33DA1394836
:1014000003F0BCF908B33CA1364803F0B7F9E0B1EA
:10141000344803F051F9302817D103202E490870C1
:1014200000202E494978354A50542C494978344A8D
:1014300022F8110033A003F0EBFF28494A7828492D
:1014400051F8220003F04EFB43E0032022490870CC
:10145000224840782A4931F81000B0F5967F19DB10
:1014600003201D4908701D4841782AA003F0D0FFD1
:1014700000201A494978224A22F811001749497870
:101480001E4A5054002115484278154850F8220051
:1014900041700FE011484078194931F81000401CA4
:1014A0000E494978164A22F811000C484178172055
:1014B00002F0E2FA0DE0AFF22C210A4803F08BF9BA
:1014C00018B103200449087002E0032002490870A3
:1014D00000BF00BF022010BD5E000020DC00002025
:1014E000DC070020C80800202B51495341434B3AE8
:1014F000200000002C0000002C20000092000020A2
:10150000F40700200D0A20B7A2CBCDB3C9B9A60DB0
:101510000A0000000D0A20736F636B65742C25644C
:101520002CB7A2CBCDCAA7B0DCA3ACB7FECEF1C618
:10153000F7CEB4CAD5B5BD200D0A000000BFFEE746
:1015400010B502460B460020002104E0545C044420
:10155000E0B24C1CE1B29942F8DB10BD7047704715
:101560002DE9F84703460024002000258446002783
:1015700000226EE14FF0010808FA02F4D1F8008071
:1015800008EA0400A0427DD1DFF8D0A2D1F804809F
:10159000A8EB0A09D0453AD014DCB8F1030F50D0BB
:1015A00009DCB8F1000F31D0B8F1010F1CD0B8F14F
:1015B000020F49D120E0B8F1110F18D0B8F1120F85
:1015C00042D11EE0B9F5881F25D006DCB9F5803F71
:1015D00020D0B9F5801F37D11AE0B9F5001F18D017
:1015E000B9F5041F30D117E0D1F80CC02DE0D1F8C7
:1015F0000C8008F1040C28E0D1F80C8008F1080CEC
:1016000023E0D1F80C8008F10C0C1EE000BF00BFF5
:1016100000BF00BF00BF00BFD1F80880B8F1000FC5
:1016200002D14FF0040C0BE0D1F80880B8F1010FA3
:1016300003D14FF0080C1C6102E04FF0080C5C6114
:1016400003E04FF0000C00E000BF00BFFF2801D80E
:10165000984601E003F104084646FF2802D84FEA05
:10166000820803E0A2F108084FEA88084746D6F846
:1016700000804FF00F0909FA07F928EA09080CFA67
:1016800007F900E088E048EA0908C6F80080D1F8C8
:10169000048008F08058B8F1805F7DD100BFDFF88A
:1016A000C081D8F8188048F00108DFF8B491C9F873
:1016B0001880C846D8F8188008F00108CDF80080D6
:1016C00000BF00BF4FEAB9384FEA920958F82950D5
:1016D0004FEA82784FEA18794FF00F0808FA09F8B4
:1016E00025EA0805DFF87C81434502D14FF0000868
:1016F00016E0DFF87481434502D14FF001080FE096
:10170000DFF86881434502D14FF0020808E0DFF8B6
:101710006081434502D14FF0030801E04FF0040817
:101720004FEA82794FEA197908FA09F848EA05057B
:10173000DFF840814FEA920948F82950D1F8048037
:1017400008F48038B8F5803F0AD1DFF82C81D8F84A
:10175000008048EA0008DFF82091C9F8008009E01D
:10176000DFF81481D8F8008028EA0008DFF8089133
:10177000C9F80080D1F8048008F40038B8F5003FBB
:1017800010D1DFF8F48008F10408D8F8008048EAA6
:101790000008DFF8E49000E05AE009F10409C9F814
:1017A00000800DE0DFF8D08008F10408D8F8008050
:1017B00028EA0008DFF8C09009F10409C9F80080A0
:1017C000D1F8048008F48018B8F5801F0ED1DFF836
:1017D000A88008F10808D8F8008048EA0008DFF877
:1017E000989009F10809C9F800800DE0DFF88880B9
:1017F00008F10808D8F8008028EA0008DFF8789097
:1018000009F10809C9F80080D1F8048008F400182B
:10181000B8F5001F0ED1DFF8608008F10C08D8F889
:10182000008048EA0008DFF8509009F10C09C9F877
:1018300000800DE0DFF8408008F10C08D8F8008047
:1018400028EA0008DFF8309009F10C09C9F8008097
:10185000521C102AFFF48EAEBDE8F887000011106C
:101860000010024000080140000C0140001001403F
:101870000014014008000140000401400246936842
:101880000B400BB1012000E0002070470AB101615C
:1018900001E00B04036170470148006870470000D5
:1018A0000400002070B504460CB9012070BD4CF650
:1018B000CC402168086045F2555021680860D4E9A1
:1018C000001048602168A0688860FFF7E5FF0546C2
:1018D00006E0FFF7E1FF401B302801D90320E5E7D0
:1018E0002068C0680028F4D14AF6AA202168086060
:1018F0000020DBE701464AF6AA200A6810600020B3
:10190000704700000348006803490978084401490A
:1019100008607047040000200C00002010B5084843
:10192000006840F0100006490860032000F0AAF8A3
:10193000002000F007F800F02BF8002010BD000098
:101940000020024070B504460E4800784FF47A71CA
:10195000B1FBF0F00C490968B1FBF0F5284600F046
:10196000AFFC08B1012070BD102C07D20022214627
:10197000501E00F048F80548046001E00120F2E73D
:101980000020F0E70C0000200000002008000020EC
:1019900008B500BF1348806940F001001149886113
:1019A0000846806900F00100009000BF00BF00BF42
:1019B0000846C06940F08050C8610846C06900F020
:1019C0008050009000BF00BF052000F05BF800BF12
:1019D0000549486820F0E06040F00070486000BFB2
:1019E00008BD0000001002400000014000BF00F0F0
:1019F0001F02012191404209920002F1E022C2F847
:101A0000001100BF70472DE9F05F80460D46164675
:101A1000002701F0FDF8074639462A46334601F013
:101A20000700C0F1070ABAF1040F02D94FF0040A07
:101A300001E0C0F1070AD14600F1040ABAF1070F2C
:101A400002D24FF0000A01E0A0F1030AD4464FF0A1
:101A5000010A0AFA09FAAAF1010A0AEA020A0AFACA
:101A60000CFA4FF0010B0BFA0CFBABF1010B0BEA7C
:101A7000030B4AEA0B042146404601F0D1F8BDE8C9
:101A8000F09F000000BF00F00702064B19684FF6F8
:101A9000FF031940044B0B4343EA0221014B196039
:101AA00000BF70470CED00E00000FA0570B5044679
:101AB0000D4600266D48006800F00700A8420ED2CF
:101AC0006A48006820F00700284368490860084613
:101AD000006800F00700A84201D0012070BD207806
:101AE00000F0020002281DD1207800F00400042834
:101AF00005D15F48406840F4E0605D494860207867
:101B000000F00800082805D15948406840F46050AA
:101B1000574948605648406820F0F000A1680843E3
:101B200053494860207800F0010000285DD06068CB
:101B3000012806D14E48006800F4003090B9012019
:101B4000CCE76068022806D14948006800F00070C0
:101B500040B90120C2E74648006800F0020008B919
:101B60000120BBE74248406820F003006168084359
:101B70003F494860FFF790FE06466068012810D193
:101B800008E0FFF789FE801B41F28831884201D9C5
:101B90000320A3E73648406800F00C000428F0D189
:101BA00023E06068022810D108E0FFF775FE801B73
:101BB00041F28831884201D903208FE72C484068E0
:101BC00000F00C000828F0D10FE008E0FFF764FEF9
:101BD000801B41F28831884201D903207EE72448E6
:101BE000406800F00C000028F0D12048006800F0A8
:101BF0000700A8420ED91D48006820F007002843BE
:101C00001A4908600846006800F00700A84201D0A1
:101C1000012063E7207800F00400042807D114486D
:101C2000406820F4E060E16808431149486020788A
:101C300000F00800082808D10D48406820F46050E2
:101C4000216940EAC1000A49486000F03DF80849AE
:101C50004968C1F30311074A515CC840064908604E
:101C60000020FFF76FFE002038E700000020024050
:101C7000001002403C5600080000002001480068A7
:101C8000704700000000002000B5FFF7F7FF04498F
:101C90004968C1F30221034A515CC84000BD0000FD
:101CA000001002404C56000800B5FFF7E7FF04495A
:101CB0004968C1F3C221034A515CC84000BD00001D
:101CC000001002404C560008F0B585B00FF26C0CC5
:101CD0009CE8E01001A8A0E8E0101CA52D68009584
:101CE00000210022002300240020194D696801F022
:101CF0000C05F5B1042D02D0082D19D101E01548CD
:101D000019E001ADC1F38346AC5D01F4803555B1F6
:101D10000F4D6D68C5F340451DF805200D4D654319
:101D2000B5FBF2F302E00C4D04FB05F3184602E0AC
:101D300000BF084800BF00BF05B0F0BD02030405A6
:101D4000060708090A0B0C0D0E0F10100102000007
:101D50000010024000127A0000093D00F8B5044668
:101D60000025207800F00100002878D0F84840686D
:101D700000F00C0004280CD0F548406800F00C007E
:101D8000082811D1F248406800F48030B0F5803F57
:101D90000AD1EF48006800F4003000285FD0606886
:101DA00000285CD10120F8BD00BF6068B0F5803F1D
:101DB00006D1E748006840F48030E549086028E033
:101DC000606858B9E248006820F48030E049086053
:101DD0000846006820F4802008601AE06068B0F5CA
:101DE000A02F0BD1DA48006840F48020D849086061
:101DF0000846006840F4803008600AE0D448006873
:101E000020F48030D24908600846006820F4802021
:101E1000086000BF606888B1FFF73EFD054606E038
:101E2000FFF73AFD401B642801D90320BBE7C848EF
:101E3000006800F400300028F2D010E0FFF72CFD1D
:101E4000054606E0FFF728FD401B642801D9032062
:101E5000A9E7BF48006800F400300028F2D12078DC
:101E600000F00200022857D1B948406800F00C0089
:101E700050B1B748406800F00C00082818D1B448A9
:101E8000406800F4803098B9B148006800F0020062
:101E900020B12069012801D0012084E7AC48006806
:101EA00020F0F800616940EAC100A949086033E008
:101EB0002069E8B10120A7490860FFF7EDFC05465D
:101EC00006E0FFF7E9FC401B022801D903206AE77E
:101ED0009F48006800F002000028F2D09C4800688B
:101EE00020F0F800616940EAC1009949086013E0F8
:101EF000002098490860FFF7CFFC054606E0FFF791
:101F0000CBFC401B022801D903204CE79048006815
:101F100000F002000028F2D1207800F00800082824
:101F20002DD1A069B8B101208B490860FFF7B4FC3E
:101F3000054606E0FFF7B0FC401B022801D903204C
:101F400031E78348406A00F002000028F2D0012007
:101F500000F07CFE13E000207F490860FFF79CFC46
:101F6000054606E0FFF798FC401B022801D9032034
:101F700019E77748406A00F002000028F2D1207883
:101F800000F00400042873D100267148C06900F0F5
:101F9000805070B900BF6E48C06940F080506C49F5
:101FA000C8610846C06900F08050009000BF00BFC3
:101FB00001266A48006800F48070B0B9674800687C
:101FC00040F4807065490860FFF766FC054606E04E
:101FD000FFF762FC401B642801D90320E3E65F4859
:101FE000006800F480700028F2D000BFE06801288B
:101FF00006D15748006A40F001005549086227E0C1
:10200000E06858B95248006A20F00100504908625F
:102010000846006A20F00400086219E0E06805281C
:102020000BD14B48006A40F0040049490862084659
:10203000006A40F0010008620AE04548006A20F0AA
:102040000100434908620846006A20F00400086263
:1020500000BFE068A0B1FFF71FFC054609E0FFF7ED
:102060001BFC401B41F28831884202D903209AE6CA
:1020700022E03748006A00F002000028EFD012E0AA
:10208000FFF70AFC054608E0FFF706FC401B41F29B
:102090008831884201D9032085E62D48006A00F086
:1020A00002000028F0D1012E05D12948C06920F096
:1020B00080502749C86100BFE069C8B32448406820
:1020C00000F00C00082860D0E069022848D1002008
:1020D00020490866FFF7E0FB054606E0FFF7DCFB5A
:1020E000401B022801D903205DE61948006800F072
:1020F00000700028F2D1206AB0F5803F07D1144863
:10210000406820F40030A168084311494860D4E9D0
:10211000080108430E49496821F4741108430C4929
:10212000486001200B490866FFF7B6FB054607E04B
:102130002DE0FFF7B1FB401B022801D9032032E656
:102140000348006800F000700028F2D01FE0000093
:1021500000100240000042428004424200700040F1
:1021600000200C490866FFF797FB054606E0FFF7DD
:1021700093FB401B022801D9032014E6064800689F
:1021800000F000700028F2D101E001200BE60020F1
:1021900009E60000000042420010024010B504466B
:1021A0000CB9012010BD0021A16294F8510010B9B2
:1021B000204600F037F8022084F8510020680068BB
:1021C00020F0400021680860D4E901010843E1687B
:1021D00008432169084361690843218B01F40071B8
:1021E0000843E1690843216A0843A16A084321685A
:1021F00008600421A06901EA1040616A084321686F
:1022000048602168E06A08612068C06920F40060C5
:102210002168C86100206065012084F85100002019
:10222000C0E7000010B586B004460020029003907D
:10223000049005901E492068884236D100BF1D4891
:10224000806940F480501B4988610846806900F429
:102250008050019000BF00BF00BF0846806940F079
:10226000080088610846806900F00800019000BFFE
:1022700000BF28200290022003900320059002A9AD
:102280000D48FFF76DF91020029000200390049094
:1022900002A90948FFF764F900BF0849486840F0FF
:1022A000E06040F00100486000BF06B010BD0000D3
:1022B0000030014000100240000C014000000140CD
:1022C00070B504462546681EB0F1807F01D3012019
:1022D0000FE0681E4FF0E02148610F214FF0FF3002
:1022E00000F09EFC00204FF0E0218861072008618B
:1022F000002070BD70477047024600BF92F83C0056
:10230000012801D102207047012082F83C0000BF63
:10231000022082F83D001068406820F070001368C9
:102320005860106840680B6818431368586010685C
:10233000806820F0800013689860106880684B689F
:10234000184313689860012082F83D0000BF002008
:1023500082F83C0000BF00BFD5E710B504460CB9B9
:10236000012010BD94F83D0028B9002084F83C00FD
:10237000204600F00DF8022084F83D00211D206861
:1023800000F02CFD012084F83D000020E9E700006A
:1023900038B504460D492068884215D100BF0C4865
:1023A000806940F400600A4988610846806900F449
:1023B0000060009000BF00BF012211461920FFF706
:1023C00022FB1920FFF712FB38BD0000002C014052
:1023D0000010024001460868C06840F001000A6829
:1023E000D0600868006840F001000A6810600020B2
:1023F00070472DE9F04104460D46002600BF94F8D1
:102400003C00012802D10220BDE8F081012084F8BF
:102410003C0000BF022084F83D002068866826F05A
:10242000770626F47F4620688660286850283BD0CF
:102430000CDC202860D004DC002853D0102865D1A3
:1024400055E030285DD0402860D141E0602835D08B
:1024500070280DD0B0F5805F03D0B0F5005F55D186
:1024600015E02068806820F00700216888604EE051
:10247000D5E902136A68206800F0EAFC20688668E3
:1024800026F0770646F07706206886603FE0D5E9BB
:1024900002136A68206800F0DBFC2068806840F462
:1024A00080402168886032E0EA686968206800F04E
:1024B000E5FC5021206800F0D7FC28E0EA68696854
:1024C000206800F0F0FC6021206800F0CDFC1EE0E8
:1024D000EA686968206800F0D1FC4021206800F0BB
:1024E000C3FC14E00021206800F0BEFC0FE01021C6
:1024F000206800F0B9FC0AE02021206800F0B4FC5C
:1025000005E03021206800F0AFFC00E000BF00BF14
:10251000012084F83D0000BF002084F83C0000BF8B
:1025200000BF71E7704710B5044620680069C0F32A
:102530004000D8B12068C068C0F34000B0B16FF06F
:10254000020021680861012020772068806900F07E
:10255000030018B12046FFF7E5FF05E0204600F034
:10256000ADF8204600F0ABF8002020772068006925
:10257000C0F38000D8B12068C068C0F38000B0B15B
:102580006FF00400216808610220207720688069CC
:1025900000F4407018B12046FFF7C4FF05E0204664
:1025A00000F08CF8204600F08AF8002020772068A0
:1025B0000069C0F3C000D8B12068C068C0F3C00093
:1025C000B0B16FF00800216808610420207720680E
:1025D000C06900F0030018B12046FFF7A3FF05E033
:1025E000204600F06BF8204600F069F800202077C4
:1025F00020680069C0F30010D8B12068C068C0F33B
:102600000010B0B16FF01000216808610820207739
:102610002068C06900F4407018B12046FFF782FFBF
:1026200005E0204600F04AF8204600F048F8002077
:1026300020772068006900F0010058B12068C06868
:1026400000F0010030B16FF0010021680861204600
:1026500000F036F820680069C0F3C01058B1206857
:10266000C068C0F3C01030B16FF08000216808610D
:102670002046FFF73FFE20680069C0F3801058B184
:102680002068C068C0F3801030B16FF0400021684E
:102690000861204600F064F820680069C0F340102B
:1026A00058B12068C068C0F3401030B16FF020000E
:1026B000216808612046FFF71EFE10BD7047704775
:1026C00010B504461F4884423AD101F079FE01F06A
:1026D0004DFD01201C4908701C480088401C1B4906
:1026E0000880084600880A282ADB0020088001208C
:1026F0001549487016480088401C1549088008464E
:1027000000880A281CDB0020088001200E49887000
:1027100010480088401C0F490880084600880A2895
:102720000EDB0020088001200749C8700A480068B5
:10273000401C0949086009480068401C07490860B6
:1027400010BD00003C0300203C040020E0010020FC
:10275000E2010020E4010020D8010020DC0100207B
:10276000704710B504460CB9012010BDA06900B136
:1027700000E000BF94F8390028B9002084F8380040
:10278000204600F027F8242084F839002068C0682B
:1027900020F400502168C860204600F09BFB2068B0
:1027A000006920F49040216808612068406920F0A9
:1027B0002A00216848612068C06840F40050216800
:1027C000C8600020E063202084F8390084F83A00D3
:1027D0000020CAE710B586B004460020029003909E
:1027E0000490059059492068884237D100BF584865
:1027F000806940F48040564988610846806900F449
:102800008040019000BF00BF00BF0846806940F0D3
:10281000040088610846806900F00400019000BF50
:1028200000BF48150290022003900320059002A9E2
:102830004848FEF795FE4FF4806002900020039018
:10284000049002A94348FEF78BFE00221146252082
:10285000FFF7D9F82520FFF7C9F875E03E49206851
:10286000884236D100BF3A48C06940F40030384948
:10287000C8610846C06900F40030019000BF00BF85
:1028800000BF0846806940F00400886108468069FE
:1028900000F00400019000BF00BF0420029002205D
:1028A00003900320059002A92A48FEF759FE08204C
:1028B000029000200390049002A92648FEF750FEE3
:1028C000002211462620FFF79EF82620FFF78EF8FB
:1028D0003AE022492068884236D100BF1C48C069CE
:1028E00040F480201A49C8610846C06900F480207D
:1028F000019000BF00BF00BF0846806940F008009B
:1029000088610846806900F00800019000BF00BFA0
:1029100008150290022003900320059002A9104898
:10292000FEF71EFE4FF4006002900020039004901A
:1029300002A90B48FEF714FE002211462720FFF7DC
:1029400062F82720FFF752F806B010BD00380140AA
:1029500000100240000801400044004000480040D0
:10296000000C014000BFFEE700B585B000200190DB
:1029700002900390049000BF3C48806940F0200022
:102980003A4988610846806900F02000009000BF45
:1029900000BF00BF0846806940F004008861084617
:1029A000806900F00400009000BF00BF00BF08462F
:1029B000806940F0080088610846806900F00800DE
:1029C000009000BF00BF002249F610012848FEF722
:1029D0005DFF00224FF283312648FEF757FF0122A8
:1029E00040212448FEF752FF49F6100001900120D3
:1029F0000290002003900220049001A91C48FEF7D9
:102A0000AFFD43F2033001900120029000200390BB
:102A10000220049001A91748FEF7A2FD4FF44040A0
:102A2000019011200290012003900320049001A93D
:102A30001048FEF795FD40200190012002900020F3
:102A400003900320049001A90A48FEF789FD802025
:102A5000019011200290012003900220049001A90E
:102A60000448FEF77DFD05B000BD000000100240E7
:102A700000080140000C014010B5074807490860F4
:102A80000420486040F6FF7104488160FEF70AFFA9
:102A900008B1FEF764FD10BD00300040D8020020F0
:102AA00010B50F480F4908604FF48270486000214C
:102AB0000C488160C160022101610121416149022C
:102AC00081610821C16100210162416281620A21A4
:102AD000C162FFF763FB08B1FEF741FD10BD0000C6
:102AE00000300140E402002000B587B000200390D0
:102AF00004900590069001900290154815490860D1
:102B00004720486000211348816040F2E731C160EE
:102B10000021016141618161FFF71FFC08B1FEF7EF
:102B20001EFD4FF48050039003A90A48FFF761FC93
:102B300008B1FEF714FD00200190029001A905489C
:102B4000FFF7DAFB08B1FEF70AFD07B000BD000091
:102B5000002C01403C03002010B50B480B490860D5
:102B60004FF4E1304860002108488160C160016194
:102B70000C21416100218161C161FFF7F2FD08B1C3
:102B8000FEF7EDFC10BD0000003801407C03002082
:102B900010B50D480D4908604FF4166048604FF4B9
:102BA00080510A4881600021C1604FF48061016159
:102BB0000C21416100218161C161FFF7D2FD08B1A3
:102BC000FEF7CDFC10BD000000440040BC03002017
:102BD00010B50B480B4908604FF4E1304860002104
:102BE00008488160C16001610C214161002181615F
:102BF000C161FFF7B6FD08B1FEF7B1FC10BD0000E2
:102C000000480040FC03002000BFFEE770470000C2
:102C100002480068C0F30220704700000CED00E09D
:102C200010B5002807DA0A07140E054A00F00F0352
:102C30001B1FD45403E00A07130E024A135410BD9D
:102C400018ED00E000E400E07047000008B5084916
:102C50000968C9084FF47A72B1FBF2F1414300915F
:102C600000BF00BF00994A1E00920029F9D108BD9B
:102C70000000002010B504462CB900224021054870
:102C8000FEF704FE04E0012240210248FEF7FEFDAB
:102C900010BD0000000C014010B580210148FEF776
:102CA000EDFD10BD000C014010B504462CB900220A
:102CB00080210548FEF7EAFD04E001228021024858
:102CC000FEF7E4FD10BD0000000C0140704710B598
:102CD000FEF718FE10BD00B58FB0282105A8FDF73E
:102CE00038FA14216846FDF734FA092005904FF4AC
:102CF0008030069000200790012009900B90022060
:102D00000C90C1030D914FF4E0110E9105A8FFF74F
:102D100025F808B1FEF723FC0F2000900220019057
:102D2000002002904FF48060039000200490022164
:102D30006846FEF7BBFE08B1FEF711FC0FB000BD00
:102D40001148006840F001000F49086008464068DB
:102D50000E4908400C494860084600680C49084084
:102D6000094908600846006820F480200860084689
:102D7000406820F4FE0048604FF41F008860C803DC
:102D80000449086070470000001002400000FFF88E
:102D9000FFFFF6FE08ED00E070B5049C0D7885702D
:102DA0004E78C6708E780671CE784671C280C36147
:102DB000846270BD70B5049C8160C26003610025AF
:102DC0008668B580C668B580046370BD10B50248DA
:102DD000FFF7A9FB10BD00003C03002000220268A1
:102DE000184B984208D0B0F1804F05D0164B98424E
:102DF00002D0164B984203D122F070024B681A435E
:102E0000104B984208D0B0F1804F05D00E4B98423D
:102E100002D00E4B984203D122F44072CB681A4381
:102E200022F080024B691A4302608B68C3620B6810
:102E30008362044B984201D10B6903630123436110
:102E400070470000002C01400004004000080040D2
:102E500030B50C460021816821F47F4142EA032508
:102E600025432943816030BD0A460021816821F055
:102E7000700142F0070319438160704730B50B467B
:102E8000144600210022026A056A25F00105056248
:102E9000816921F0F00141EA041122F00A021A438B
:102EA0008161026230BD30B50B461446002100221C
:102EB000056A25F0100505628169026A21F47041F6
:102EC00041EA043122F0A00242EA03128161026267
:102ED00030BD00002DE9F04104460025206800695E
:102EE00020F44050E1680843216808612169A06826
:102EF00008436169084305432068C06841F20C61DA
:102F0000884328432168C8602068406920F44070E5
:102F1000A1690843216848615F49206888425CD103
:102F2000FEF7C2FE00EBC00101EB001061688900F2
:102F3000B0FBF1F6FEF7B8FE00EBC00101EB0010AC
:102F400061688900B0FBF1F06421B0FBF1F000EBA7
:102F5000C00101EB0010A6EB8000322101EB001054
:102F60006421B0FBF1F000F0F006FEF79DFE00EBEF
:102F7000C00101EB001061688900B0FBF1F0642131
:102F8000B0FBF1F006EB0016FEF78EFE00EBC00181
:102F900001EB001061688900B0FBF1F7FEF784FED9
:102FA00000EBC00101EB001061688900B0FBF1F09B
:102FB0006421B0FBF1F000EBC00101EB0010A7EBC6
:102FC0008000322101EB00106421B0FBF1F000F031
:102FD0000F003044216888605BE0FEF755FE00EB8F
:102FE000C00101EB001061688900B0FBF1F6FEF74B
:102FF0004BFE00EBC00101EB001061688900B0FBE3
:10300000F1F06421B0FBF1F000EBC00101EB001026
:10301000A6EB8000322101EB00106421B0FBF1F03F
:1030200000F0F006FEF730FE00EBC00101EB0010EF
:1030300061688900B0FBF1F06421B0FBF1F006EBB0
:103040000016FEF721FE00EBC00101EB00106168E5
:103050008900B0FBF1F7FEF717FE00EBC00101EBB2
:10306000001061688900B0FBF1F06421B0FBF1F061
:1030700000EBC00101EB0010A7EB8000322101EB57
:1030800000106421B0FBF1F000F00F003044216823
:103090008860BDE8F08100000038014010B50C48A0
:1030A0000068C0F3401030B10948001D0068C4B288
:1030B000204601F081FE06480068C0F3C00028B138
:1030C0000348006820F008000149086010BD0000B6
:1030D0000038014010B50C480068C0F3401030B112
:1030E0000948001D0068C4B2204602F0EDF8064809
:1030F0000068C0F3C00028B10348006820F0080051
:103100000149086010BD00000044004010B50C48A3
:103110000068C0F3401030B10948001D0068C4B217
:10312000204602F0DFF906480068C0F3C00028B16D
:103130000348006820F008000149086010BD000045
:103140000048004000BFFEE70FB4054B10B503A9CF
:10315000044A029800F0EEF810BC5DF814FB000081
:10316000853D0008D402002037B514460846064BBA
:103170006A46214600F0DEF804466946002000F069
:1031800070FC20463EBD0000633A000802E008C81B
:10319000121F08C1002AFAD170477047002001E0D1
:1031A00001C1121F002AFBD1704780F310887047BD
:1031B0002DE9FF5F82B00021DDE90430020DDDF86A
:1031C00040B0034318D044F61050A2F2FF324243FD
:1031D0001514119801281FD0A5EB0B00401C5FEAC5
:1031E000000A4FF000064E4FDFF83891B0465046C7
:1031F00015D5CAF1000413E0119801244AA301284F
:1032000001D16FEA0B010298119AC0E90031C0E9BF
:10321000024206B0BDE8F09FCBF10000DFE70446B4
:103220000021404A491842EB0450CDE9001012E059
:10323000E00707D032463B4640464946FDF782F854
:103240008046894632463B4610461946FDF77AF8D5
:1032500006460F466410002CEAD1DDE90401DDE9E1
:103260000023BAF1000F06DAFDF76CF842464B4630
:10327000FDF768F805E0FDF7D7F842464B46FDF745
:10328000D3F804460E460022284BFDF755F903D823
:103290004FF0FF30014607E00022254B2046314623
:1032A000FCF7A9FFFDF72FF9102409E0002C0ADB39
:1032B0000A220023FCF76EFF039B30321A55641E6E
:1032C00050EA0102F2D1641C039AC4F111031444C0
:1032D000119A012A03D0012208430DD10AE00843C4
:1032E00004D000204FF0110B119072E7A3EB0B05F7
:1032F0006D1E0DE05B4504DD4FF0000205F1010598
:1033000004E003DA4FF00002A5F10105002AECD039
:1033100002981199C0E90231C0E9004579E700003F
:10332000000014400000F03F300000000000F043B7
:103330000000E03F2DE9FF4F95B09B4689460646C9
:1033400000250FE2252877D100242746F84A0121DD
:10335000059400E0044316F8013F203B01FA03F016
:103360001042F7D130782A2811D06FF02F0330782F
:10337000A0F13002092A16D8059A44F0020402EBA3
:10338000820203EB42021044761C0590EFE759F8E5
:10339000042B0592002A03DA504244F400540590AD
:1033A00044F00204761C30782E2816D116F8010F4E
:1033B00044F004042A280DD06FF02F023078A0F1D9
:1033C0003003092B09D807EB870302EB4303C71827
:1033D000761CF3E759F8047B761C30786C280FD004
:1033E00006DC4C2817D068280DD06A2814D104E0D8
:1033F000742810D07A280FD10DE044F400140AE0AC
:1034000044F4801401E044F440147278824202D102
:1034100004F58014761C761C307866280BD013DCFB
:10342000582877D009DC002875D04528F6D04628E2
:10343000F4D047281AD19DE118E0632835D06428DC
:1034400079D0652812D195E1702873D008DC6728FF
:10345000F1D069286FD06E280DD06F2806D1B5E065
:1034600073282CD0752875D0782874D05A461799AF
:1034700090476D1C75E1C4F30250022809D003285F
:103480000DD0D9F8001004280DD00D6009F1040901
:1034900067E1D9F80010EA17C1E90052F6E7D9F858
:1034A00000100D80F2E70D70F0E719F8041B8DF89D
:1034B000001000208DF80100EA46012003E059F8D1
:1034C00004AB4FF0FF3061074FF0000102D40DE074
:1034D00008F101018846B9420FDA8045F8DB1AF895
:1034E00008100029F4D108E008F101018846814262
:1034F000FADB1AF808100029F6D105985B46A0EB14
:10350000080721463846179A00F094FA284400EB41
:10351000080507E04DE029E10DE01AF8010B5A46D5
:1035200017999047B8F10108F7D25B462146384613
:10353000179A13E142E00A220092C4F302524FF0BC
:10354000000A022A08D059F804CB032A4FEAEC718A
:103550000AD00DE029E02AE009F1070121F0070275
:10356000F2E802C1914609E00FFA8CFC4FEAEC71D7
:10357000042A03D14FFA8CFC4FEAEC71002907DAD8
:103580000A460021DCF1000C61EB02012D2202E071
:10359000220504D52B228DF80420012203E0E20746
:1035A00001D02022F7E7904659E00A2102E01022DC
:1035B0000DE010214FF0000A00910BE010224FF0B7
:1035C000000A44F004040827009203E008224FF0A8
:1035D000000A0092C4F30252022A05D059F804CB23
:1035E0000021032A08D009E009F1070121F00702B0
:1035F000F2E802C1914605E01FFA8CFC042A01D1D1
:103600000CF0FF0C4FF00008220728D5702806D0D8
:10361000009B83F0100353EA0A0305D00EE040221A
:103620008DF80420012208E05CEA010206D0302275
:103630008DF804208DF8050002229046009B83F04F
:10364000080353EA0A030AD15CEA010201D16207C6
:1036500005D530228DF804204FF001087F1E582830
:1036600004D034A003900EA802900DE036A0F9E734
:1036700053466046009AFCF78DFD84460398825CB1
:103680000298401E029002705CEA0100F0D102989C
:1036900006A9081A00F1200A600702D524F4803434
:1036A00000E00127574502DDA7EB0A0000E00020FB
:1036B00000EB0A01009005984144401A0590E00390
:1036C00006D45B462146179A059800F0B3F90544E5
:1036D000002706E001A85A46C05D179990476D1C67
:1036E0007F1C4745F6DBE0030CD55B462146179A65
:1036F000059800F09FF9054404E030205A461799D8
:1037000090476D1C0099481E00900029F5DC08E0E8
:10371000029802995A460078491C029117999047DD
:103720006D1CBAF10001AAF1010AF1DC65E10000AB
:103730000928010030313233343536373839616287
:10374000636465660000000030313233343536374B
:1037500038394142434445460000000000F058F922
:103760000544761C307800287FF4ECAD19B028466B
:10377000BDE8F08F620700D4062709F1070222F0A6
:10378000070CFCE80223E14603F000485FEA080C5E
:1037900002D00FF2702C0DE05FEA045C02D50FF24C
:1037A000682C07E05FEAC47C02D00FF2602C01E0D5
:1037B000AFF2700C4FF0FF3823F00043CDF850C04B
:1037C00065280CD006DC452809D046281DD047289E
:1037D0003DD13DE0662818D067287ED138E0002131
:1037E000112F01DB112000E0781CCDE9000106A9B2
:1037F0000EA8FFF7DDFCDDE90F010E9A0391002111
:10380000009207F1010A04914DE04FF0004000974B
:10381000CDE9011006A90EA8FFF7CAFCDDE90F02E9
:1038200003920E9B11990022DDF80CA000930492E4
:1038300011B9791C00EB010AB7EB0A0004D4C0F1FE
:10384000FF3007F1010A0490AAEB0700019044E061
:10385000012F00DA01270021112F01DD112000E0E6
:103860003846CDE9000106A90EA8FFF7A1FCDDE965
:103870000F010E9A0391002104910092BA4621078C
:103880000CD40399514500DA8A46BAF1010F05DDDF
:10389000009AAAF10101515C302908D0B84202DA3D
:1038A00010F1040F06DA0121CDE9011015E0AAF1AB
:1038B0000101E9E7002805DC049901440491AAEB21
:1038C000000102E0411C514500DD8A460499401A7E
:1038D000401C01904FF000400290200704D4019852
:1038E000504501DBCDF8048000208DF84F00029890
:1038F0000DF14F07B0F1004F25D02B200E9002980C
:103900004FF0020800280CDA404202902D200E9061
:1039100007E00A210298FCF727FC3031029007F8F3
:10392000011DB8F10001A8F10108F2DC029800289D
:10393000EFD1791E0E980870307800F0200040F02A
:10394000450007F8020D12A8C01B00F107081498E3
:10395000007800B1012000EB0A01019801EBE07151
:1039600005984144401A401E0590E00306D45B468A
:103970002146179A059800F05DF8054414980078E0
:1039800018B15A46179990476D1CE00324D55B4641
:103990002146179A059800F04DF805441CE004985C
:1039A000002807DBDDE90301884203DD0098405C65
:1039B000179901E0179930205A469047049805F16D
:1039C0000105401C04900198401E019004D12E2056
:1039D0005A46179990476D1CBAF10001AAF1010AE5
:1039E000DDDC05E017F8010B5A46179990476D1C6E
:1039F000B8F10001A8F10108F4DC5B462146179AF2
:103A00000598ABE62D0000002B0000002000000010
:103A10002DE9F041044600251E461746880404D4CB
:103A200005E039462020B0476D1C641EF9D52846B4
:103A3000BDE8F0812DE9F041044600251E46904680
:103A4000C80301D5302700E02027880404D505E00D
:103A500041463846B0476D1C641EF9D52846BDE87E
:103A6000F0810A68531C0B601070704710B5044653
:103A7000204600F037FF10BD38B504460D468DF8DE
:103A800000408DF8015007488088022809DB9DF826
:103A90000010044800F0D3F89DF80110014800F030
:103AA000CEF838BDCC00002030B503460C460025CA
:103AB000002208E0985C00F00AF805EB850100EBB5
:103AC0004105501CC2B2A242F4DB284630BD01467B
:103AD000392903DCA1F13000C0B27047462903DC6C
:103AE000A1F13100C0B2F8E7662903DCA1F1510071
:103AF000C0B2F2E7FF20F0E710B500F083FA00F063
:103B0000DBFA10BD08B56420009000BF9DF80000EE
:103B1000411EC9B200910028F8D108BD002001491A
:103B200008607047E0000020014607480068401C1C
:103B3000054A106010460068884203D300201060D8
:103B4000012070470020FCE7E00000202DE9F04153
:103B500004460F46154601F08FF82112A02202EB11
:103B60004101C8B200F0DCFE00F07AFEE0B200F0E5
:103B7000D7FE00F075FE01F07FF82112A12202EBC2
:103B80004101C8B200F0CCFE00F06AFE012D0CDD50
:103B9000002607E000F082FEB8550020FFF766FF20
:103BA000701CC6B2681EB042F4DC00F077FE691EDD
:103BB00078540120FFF75AFF01F074F80120BDE8A6
:103BC000F081F0B50C461346C2880688B61AB5B225
:103BD0009D4216DA002106E0665CC768BE54561C9A
:103BE000B2B24E1CB1B2A942F6DB002206E0665C1E
:103BF000C768BE54561CB2B24E1CB1B29942F6DB35
:103C00000AE0002106E0665CC768BE54561CB2B2EA
:103C10004E1CB1B29942F6DB86889E4207DDC28017
:103C200046881E4446808688F61A868006E0C28052
:103C3000C68806810688468000268680F0BD0A4632
:103C4000C18883884BB9C3685A544B1C99B2038806
:103C50008B4200DC002101810DE0C3685A544B1CEB
:103C600099B203888B4200DC002143885B1C4380AF
:103C700083885B1E8380C18070478288AAB90289CD
:103C80001AB90288521E028102E00289521E028184
:103C9000C2881AB90288521EC28002E0C288521E2F
:103CA000C2800389C268D15411E002891AB902881E
:103CB000521E028102E00289521E02810389C268FB
:103CC000D1544288521C42808288521E82807047A2
:103CD000C1880181018881800021418070470146AF
:103CE000488808B9002070470B89C868C25C0889F9
:103CF000401C088108890B88984201DB002008815C
:103D00008888401C88804888401E48801046EAE722
:103D100070B503460D4614465888A04201DA0020CB
:103D200070BD1A891888801A86B2A64216DA002158
:103D300006E0D868805C6854501C82B2481C81B28E
:103D4000B142F6DB002206E0D868805C6854501C63
:103D500082B2481C81B2A142F6DB0AE0002106E0F3
:103D6000D868805C6854501C82B2481C81B2A14261
:103D7000F6DB1A815888001B588098882044988068
:103D80000120CDE770B504460D46E0B200F0DEFF3D
:103D9000204670BDF0B503460C469D88D8889F88A4
:103DA000C01B86B296420FDB002107E0605C05EB8A
:103DB000010C1F6807F80C00481C81B29142F5DB2A
:103DC000A81898800120F0BD0020FCE710B502463D
:103DD000D0889488001B83B23BB194881068015549
:103DE0009088401C9080012010BD0020FCE770B539
:103DF00005460E461446A988A01C81420EDB2112FE
:103E00002846FFF71CFFE1B22846FFF718FF2246BD
:103E100031462846FFF7D5FE012070BD0020FCE7A3
:103E200070B505460C46A08808B9012070BDA08871
:103E3000801CA98888420FDCA08801122846FFF761
:103E4000FEFE21792846FFF7FAFEA288284621685F
:103E5000FFF7B7FE0120E9E70020E7E72DE9FC5F67
:103E600004468B460026002700250020019080464E
:103E70008146009020680078AA281FD1A188206878
:103E8000405CEE281AD1A288921E91B2206800F000
:103E90001FFF00F0FF08A088801E2168085C4045D5
:103EA0000CD10120FFF781F921465846FFF7B8FFF2
:103EB0000020FFF77AF90120BDE8FC9F58E0019847
:103EC00010B1012852D10FE02068805DAA2808D1E6
:103ED00037463546002000900198401CC0B2019042
:103EE00001E0701C86B242E035E02068405DEE28BB
:103EF0002FD14FF00008BA4609E0206810F80A00F8
:103F0000404400F0FF080AF101001FFA80FA681E21
:103F10005045F2DC2168085C40451AD10120FFF7CA
:103F200044F9E81B401C82B22068C1195846FFF7CB
:103F30005EFF0020FFF739F9B9F1FF0F03DA09F14D
:103F4000010000F0FF09012000902E4600200190A2
:103F500004E0681C85B2A088A842C6DC00BF0098B7
:103F600008B9781C86B20020019000E000BF00BFB5
:103F7000A088B042A3DC48469EE7F0B503460C4655
:103F8000D888E188884210DB184600F035F81E68B2
:103F90002768A5889D80002203E0B85CB054501CBF
:103FA00082B2AA42F9DB0120F0BD0020FCE72DE936
:103FB000F04107460C46788802281BDD3846FFF79B
:103FC0008EFE80463846FFF78AFE064606EB08203E
:103FD00085B2E088A84208DBA5802A4638462168D9
:103FE000FFF796FE0120BDE8F0813846FFF770FE2E
:103FF0000020F8E70020F6E7014600208880012035
:104000007047000010B51B48007810B101282FD16F
:1040100020E019484088E0B1184800F074FDC0B1B4
:104020000120FFF7C2F8154881681348FFF7BFFF6A
:104030000020FFF7BAF8114800F050FD10A001F081
:10404000E7F900201B4908800A480078401C09490C
:1040500008700DE017480088401C16490880084683
:104060000088142803DB002008800249087000BF84
:1040700000BF10BD33020020F80100206C27002093
:104080000D0A20B4D34649464F5F5443507478D646
:10409000D0B6C1C8A1D2BBD6A120B2A2B4A5B7A246
:1040A000736F6B65745F36303036B7A2CBCD0D0AB7
:1040B000000000003402002010B51B48007810B149
:1040C00001282FD120E019484088E0B1184800F0BD
:1040D0001AFDC0B10120FFF768F815488168134840
:1040E000FFF765FF0020FFF760F8114800F0F6FCCD
:1040F00010A001F08DF900201B4908800A480078C3
:10410000401C094908700DE017480088401C1649FA
:10411000088008460088142803DB00200880024934
:10412000087000BF00BF10BD36020020080200204A
:10413000A02700200D0A20B4D34649464F5F5443C0
:10414000507478D6D0B6C1C8A1D2BBD6A120B2A235
:10415000B4A5B7A2736F6B65745F36303039B7A200
:10416000CBCD0D0A000000003802002010B55248E7
:10417000007800B910BD5148007808B900F0D2F9B4
:104180004F48007820B1012816D002287CD14DE09C
:1041900000F0C2F801280ED100F0ECF901204849E6
:1041A000087000204749087047490870474908705F
:1041B0004748FFF78DFD6BE03F484078B8B9444869
:1041C000FFF786FD00240AE0424A02EB44025178E0
:1041D000404A12F81400FFF74FFC601CC4B2172CC1
:1041E000F2D30120344948703BA001F011F9324864
:1041F0004078022816D1324908703CA001F008F935
:1042000000240DE000212C48001D50F824004170CE
:104210000020394921F8140038490855601CC4B2FF
:10422000062CEFDB00203649086031E03448006896
:10423000401C334908600846006842F21071884209
:1042400006D300202E49086000210520FFF714FC4A
:104250002C484068401C2B494860084640688968E3
:10426000884206D300202749486000211320FFF729
:1042700003FC002405E007E0204600F04DFC601C34
:10428000C4B2062CF8DB03E000200D49087000BF23
:1042900000BF1D4800F029FD1B4800F039FD10B19A
:1042A00000201A4908701A4800F01FFDFCF71EFB99
:1042B000FCF716FA00BF5DE7D8070020FC000020DD
:1042C0005C0000205D000020ED0000205E0000206A
:1042D000CC0000209A000020CCEDBCD3C5E4CDF882
:1042E000D6B8C1EED0F2C1D00D0A0000C5E4CDF8B9
:1042F000B3C9B9A60D0A0000F407002092000020FF
:10430000080100208400002060000020EC00002054
:104310006C0000207047000010B52048007820B1E4
:10432000012813D0022831D121E01DA001F070F83E
:1043300000224FF480511D48FDF7A8FAFFF7EEFB6D
:1043400016480078401C1549087023E04FF4FA60C5
:10435000FFF7EAFB012809D110480078401C0F49FB
:104360000870012211031148FDF790FA12E04FF492
:10437000FA60FFF7D9FB012807D100200749087030
:104380000BA001F045F8012010BD03E00020034917
:10439000087000BF00BF0020F6E700005D000020AD
:1043A0006D3236B8B4CEBB0D0A000000000C0140DF
:1043B0006D3236B8B4CEBBCDEAB3C90D0A000000E9
:1043C00010B50A4800F091FC084800F0A1FC60B16B
:1043D00000F094FF06490748FFF7CFFD012006498A
:1043E0000870064908700649087010BD4C0000208E
:1043F0003800002040000020340000204800002049
:104400004900002010B50948408850B10748FFF71F
:1044100066FC074908700548FFF761FC04494870CD
:1044200003E0034803490988018010BDCC00002047
:10443000DC000020C80000203EB50B226946102099
:10444000FFF784FB00211448C174002414E01DF818
:104450000400392809DC1DF80400302805DB1DF8AC
:1044600004100D480830015504E00CA000F0D0FF06
:1044700000203EBD601CC4B20B2CE8DB002406E02B
:104480001DF80410044808300155601CC4B20B2C00
:10449000F6DB0120EDE700003C0400206269616E5C
:1044A00068616F3AB2C9BCAFC6F7B1E0BAC5CEB465
:1044B000C9E8D6C30D0A000000B50346184600F04F
:1044C00003F8401C80B200BD0146002004E0421CFD
:1044D00090B2421C02B902E00A5C002AF7D100BF88
:1044E000704710B503460A46002107E0585C545C4B
:1044F000A04201D0002010BD481C81B2505C0028B1
:10450000F4D10120F7E7000070B504460D462946B6
:104510000348FFF7B2FB21460148FFF7AEFB70BD31
:10452000CC00002038B50E480E4B1A4611460090BC
:104530000D48FEF73FFC00200B490870002409E0FD
:104540000A4850F8240018B90749084840F82410D0
:10455000601CC4B2062CF3DB01200549087038BD8D
:1045600015430008F4000020FC080020DC070020B0
:10457000FC00002010B50FA000F04AFF00201049F9
:1045800008701049087010490870104948700024DC
:1045900007E000210D48001D50F824004170601C08
:1045A000C4B2062CF5DB0A48FFF792FB09A000F025
:1045B0002FFF10BDCAFDBEDDB8B4CEBB0D0A000092
:1045C0005E0000205C0000205D000020D807002075
:1045D000CC000020CAFDBEDDB8B4CEBBCDEAB3C965
:1045E0000D0A0000FDF79AF9FEF775FBFEF7BCF91E
:1045F000FEF7B2FAFEF7CCFAFEF7EAFAFEF750FA47
:10460000FEF772FA00F002F800BFFEE70122022175
:104610001948FDF73BF900F089FB00F02BFE00F094
:10462000E7FE1648FDF7D6FE15A000F033FE012286
:10463000D1021748FDF72AF916A000F03FF900F063
:1046400081F9FEF719FA16E01448807898B1002035
:1046500012498870FFF750FA1148006841F27071F2
:10466000884208D20F48006844F62061884202D28E
:104670000D48FDF73FF9E7E7000C01403C0300203F
:10468000537973746D52657365740D0A00000000F0
:104690000008014068656C6C6F0000003C0400205D
:1046A000D8010020DC010020D802002082800160B7
:1046B0000023C380C281704701460020CB880A686E
:1046C000D05CCA888B889A4202DACA88521CCA8097
:1046D00070470146C88830B1C888401EC880CA8863
:1046E0000868805C70470020FCE72DE9F04704462D
:1046F0000027B8460025A946002604F10800FFF768
:104700007BFCE588B4F804902AE017B1012F22D190
:1047100012E02068405D30280DDB2068405D3928BC
:1047200009DC4FF001082E4620682844A0600021D3
:10473000A181781CC7B210E02068405D302803DBFF
:104740002068405D392805DDA81BA081E580012097
:10475000BDE8F08701E00020FAE700BF681C85B2E1
:104760004D45D2DBB8F1010F06D1E088281A801B35
:10477000A081E5800120EBE70020E9E7F0B50446E1
:104780000E460025E7883046FFF796FE401E85B2AC
:104790000DB90120F0BDA088E188401AA84201DAD5
:1047A0000020F7E70FE0E288216888183146FFF71C
:1047B00098FE012804D1E0882844E0800120E9E740
:1047C000E088401CE080E088A188491B8842EADB41
:1047D000E7800020DEE7F0B504460E460025E788B6
:1047E0003046FFF769FE401E85B20DB90120F0BDCD
:1047F000A088E188401AA84201DA0020F7E70BE020
:10480000E288216888183146FFF76BFE012800D145
:10481000EDE7E088401CE080E088A188491B8842E1
:10482000EEDDE7800020E2E70146CA880EE0CB8893
:104830000868C05C302806DBCB880868C05C392873
:1048400001DC01207047C888401CC880C8888B885C
:104850009842ECDBCA800020F4E70021C180704759
:1048600010B500F003F80446204610BD10B5002432
:104870000120FEF719FAFFF745F90120FEF7FAF9D2
:10488000FFF740F9FEF708FA0446FFF73BF900206E
:10489000FEF7F0F9FFF736F9204610BD70B5002499
:1048A000002506E06006040EFFF7E0FF0443681CE5
:1048B000C5B2082DF6DB204670BD000010B50446D9
:1048C000012251020648FCF7E1FF204600F0E2FC1D
:1048D00000224FF400710248FCF7D8FF10BD000021
:1048E000000C014010B504460020FEF7C3F9FFF7A5
:1048F00009F92CB10120FEF7D7F9FFF703F904E01D
:104900000020FEF7D1F9FFF7FDF80120FEF7B2F91C
:10491000FFF7F8F80020FEF7ADF9FFF7F3F810BD48
:1049200070B505460026002408E08020204100EAFA
:1049300005063046FFF7D6FF601CC4B2082CF4DB36
:1049400070BD000008B53E48FFF756FB3D48FFF735
:1049500053FB3D48FFF750FB3C48FFF74DFB3C48FD
:104960003C4B3D4A364900903C48FEF723FA3C4810
:104970003C4B3D4A334900903C48FEF71BFA3C480B
:104980003C4B3D4A304900903C48FEF713FA3C4806
:104990003C4B3D4A2D4900903C48FEF70BFA3C4801
:1049A0004EF6602343F61E523A4900902B48FEF71C
:1049B000F3F937484EF660234BF2DD22364900907A
:1049C0002A48FEF7E9F932484EF6602341F69C0288
:1049D000324900902948FEF7DFF92D484EF6602352
:1049E00041F6A6022C4900902848FEF7D5F91B494C
:1049F0000E2208692A49FFF7CDF91C490E220869E1
:104A00002749FFF7C7F91D490E2208692449FFF716
:104A1000C1F9124823494860144922488160174966
:104A2000C1601A49016101201E49087000200B492C
:104A3000087001200D4908701049087008BD000079
:104A40003C020020540200206C020020840200205E
:104A5000A94A00084C020020440200203827002008
:104A6000C14A0008640200205C0200206C2700207C
:104A7000D94A00087C02002074020020A0270020F0
:104A8000DB4A0008940200208C020020D42700207A
:104A9000C0270900A00200209C020020A4020020E0
:104AA000A8020020D807002010B50349C8680349B0
:104AB000FFF7D4F9044610BD38270020E801002094
:104AC00010B50349C8680349FFF7C8F9044610BD8B
:104AD0006C270020E801002070477047012180F812
:104AE0002C10704710B50446A068FFF785FA10BD7A
:104AF000014691F82C0020B1002081F82C00012003
:104B000070470020FCE701468868808808B90120CA
:104B100070470020FCE7000010B50446062C00DBBF
:104B200010BD4A4850F824000078002875D0474846
:104B300050F82400407820B1012818D0022877D1FD
:104B40002CE000210520FEF797FF21461520FEF7F7
:104B500093FF21461420FEF78FFF01213B4850F8B8
:104B60002400417000203A4941F8240061E03848AF
:104B700050F82400401C364941F82400084650F8FB
:104B800024003449884208D30020314941F82400E8
:104B900000212E4850F8240041704AE000202C49A2
:104BA00041F82400294951F82400FFF7A1FF48B13A
:104BB000264850F824008068808818B121461620C5
:104BC000FEF75AFF214951F8241001F1140000F0BA
:104BD0008CF81E4951F8241001F1140000F098F8E7
:104BE00050B11A4951F8241001F1140000F097F85F
:104BF00021461820FEF740FF144951F8241001F116
:104C0000200000F072F8114951F8241001F1200041
:104C100000F07EF858B1214601E00BE008E00EA05C
:104C200000F0F6FB0021094850F82400417000E034
:104C300000BF09E0054850F824004078022803D15D
:104C400021461520FEF718FF00BF69E7DC070020AA
:104C5000E4080020400D0300736F636B65745F25EB
:104C60006420CEB4CAD5B5BDD0C4CCF82D2D3ED667
:104C7000D8C1AC0D0A00000010B50120FEF714F8F1
:104C8000FEF740FF0120FDF7F5FFFEF73BFF002098
:104C9000FEF70AF8FEF736FF0020FDF7EBFFFEF700
:104CA00031FF10BD10B50020FDF7E4FFFEF72AFF2D
:104CB0000020FDF7F9FFFEF725FF0120FDF7DAFFE1
:104CC000FEF720FF0120FDF7EFFFFEF71BFF10BDF1
:104CD00010B502460B460020002103E0545C20443E
:104CE0004C1CA1B29942F9DB10BD017801290BD10E
:104CF0004168491C4160D0E90112914204D300216E
:104D000041600170012141707047002101707047BE
:104D100001464878012801D100224A7070470121DC
:104D200001700021416041707047000008B50648DD
:104D30000068C0B2009004480C30006840F02000C9
:104D400001490C31086008BD003801400121084AC2
:104D500011700849086000BF0649091F096801F081
:104D600040010029F8D00021014A1170704700006D
:104D7000580000200438014030B501240C4D2C703F
:104D80000268838800210CE0545C0A4D2C6000BF4F
:104D9000084C241F246804F04004002CF8D04C1C5C
:104DA000A1B29942F0DB0024014D2C7030BD00000F
:104DB000580000200438014010B504460020044982
:104DC0000860204600F03EF9204600F003F810BDD0
:104DD000D801002070B504468448007800B970BD41
:104DE0008348007807282BD2DFE800F0042F4251D7
:104DF000879FAB007F480078012805D100207D49BE
:104E000008707D48FFF7F8F821467B48FEF7DEFF83
:104E10007948828801687948FFF748FC78A177488B
:104E2000FFF7D9FC68B1744880880F3872498880D0
:104E30007248FFF712FD6E480078401C6C490870FC
:104E4000C1E06E48FFF709FDBDE0392C0FDC302CC6
:104E50000DDBA4F130006E49087000206D49087028
:104E60006D49086062480078401C61490870AAE0FA
:104E7000392C0BDC302C09DB6848047001206549B3
:104E800008705B480078401C594908709BE06348F3
:104E90006049097844545F480078401C5D490870B7
:104EA000084600780A2803DB0020514908708AE090
:104EB0000A2C21D157480078801EC1B25748FEF70E
:104EC000F3FD554908600846006840F2DC5188420D
:104ED0000ED847480078401C454908704349091DD1
:104EE0004B4A127851F82210C868FFF785F803E0A2
:104EF00000203F49087066E065E03C49091D444ACE
:104F0000127851F82210C8682146FEF75FFF424828
:104F10000068401E404908600846006820B93448CF
:104F20000078401C324908704DE00D2C05D1304806
:104F30000078401C2E49087002E000202C490870BF
:104F400041E00A2C3BD10020294908702749091D5E
:104F50002F4A127851F8221001F12000FFF7DFFEEE
:104F60002249091D2A4A127851F82210086B8047FD
:104F70001E48001D2649097850F82100C068828823
:104F80002348017826A000F043FA00250CE01749D9
:104F9000091D1F4A127851F82210C9680968485D36
:104FA00000F06AFA681C85B21048001D184909789B
:104FB00050F82100C0688088A842E8DC02E00020A8
:104FC0000B49087000BF00BF0948007830B91B4882
:104FD000FFF79BFE1A48FFF7A2FE05E01848FFF70F
:104FE00094FE1648FFF79BFE00BFF8E6300900204C
:104FF000980100204901002090010020200A002093
:105000002B51495552433A202272656376222C0077
:10501000C8010020C9010020CC010020780A00202E
:10502000736F636B65743A25642C6C656E67746886
:105030003A25642CCAFDBEDDA3BA00001001002091
:105040001C01002070B504467548007800B970BD99
:105050007448007818B97448FFF761FE02E073489D
:10506000FFF75DFE6F48007805282AD2DFE800F0E0
:10507000032E415086006E480078012805D100209B
:105080006B4908706B48FEF7B7FF21466948FEF789
:105090009DFE6848828801686748FFF707FB67A1A3
:1050A0006548FFF798FB68B1624880880A38614913
:1050B00088806148FFF7D1FB5A480078401C594965
:1050C0000870A9E05C48FFF7C8FBA5E0392C0FDCAD
:1050D000302C0DDBA4F130005B49087000205B49E7
:1050E00008705B4908604F480078401C4D490870C3
:1050F00092E0392C0BDC302C09DB5648047001207F
:105100005249087047480078401C4649087083E0BF
:1051100050484E49097844544C480078401C4B494B
:105120000870084600780A2803DB00203D49087013
:1051300072E00A2C21D145480078801EC1B2454852
:10514000FEF7B2FC424908600846006840F2DC51B4
:1051500088420ED833480078401C324908703049E4
:10516000091D394A127851F82210C868FEF744FF29
:1051700003E000202B4908704EE04DE02849091D4E
:10518000314A127851F82210C8682146FEF71EFEF7
:105190002F480068401E2E49086008460068D0BBB2
:1051A0000020204908701E49091D274A127851F82D
:1051B000221001F12000FFF7B2FD1949091D224A12
:1051C000127851F82210086B80471548001D1E49BF
:1051D000097850F82100C06882881B4801781EA019
:1051E00000F016F900250CE00D49091D164A127849
:1051F00051F82210C9680968485D00F03DF9681C43
:1052000085B20748001D1049097850F82100C06890
:105210008088A842E8DC00BF00BF00BF17E700009D
:10522000D8070020EC0000206C0000206000002067
:1052300099000020E4000020C80800202B524543BC
:10524000454956453A200000FD000020FE000020A0
:1052500000010020D8080020736F636B65743A2545
:10526000642C6C656E6774683A25642CCAFDBEDDDB
:10527000A3BA000008B506480068C0B20090044810
:105280000C30006840F0200001490C31086008BD76
:105290000044004001210A4A11700BE00178094ADC
:1052A000116000BF0749091F096801F0400100298A
:1052B000F8D0401C01780029F0D1014A11707047E4
:1052C000590000200444004010B504460848007806
:1052D00028B10020064908700648FEF78DFE0648F2
:1052E000FFF71DFD21460348FEF770FD10BD0000CD
:1052F0001000002014000020280000203EB52348A4
:10530000828801682248FFF7D1F922A12048FFF7DF
:1053100035FA002825D0002410E01D48FFF7CCF90D
:105320000546392D04DC302D02DB0DF8045003E076
:105330001CA000F06DF83EBD601CC4B20B2CECDB71
:10534000002405E01DF804101B480155601CC4B280
:105350000B2CF7DB19A000F05BF80120184908704E
:10536000E9E718A10A48FFF736FA60B1FFF764F8D9
:10537000012804D1104917A000F04AF802E018A053
:1053800000F046F8D7E700BFD5E70000380000205E
:10539000082800206269616E68616F5F7365743A06
:1053A000000000006269616E68616F3ACAE4C8EB90
:1053B000D3D0CEF300000000440400200D0A00000A
:1053C000B80200206269616E68616F5F7265616436
:1053D000000000000D0AB1E0BAC53A2573000000D4
:1053E0000D0AB1E0BAC5CEB4C9E8D6C30D0A0000B3
:1053F00008B506480068C0B2009004480C30006848
:1054000040F0200001490C31086008BD0048004010
:105410000FB438B505A800900748009A0499FDF725
:10542000A3FEC4B2002000902146034800F006F815
:1054300038BC5DF814FB00005304002010B5024690
:1054400001230B4C237000200CE0135C094C2360FB
:1054500000BF084B1B1F1B6803F04003002BF8D054
:10546000431C98B28842F0DB0023014C237010BD2E
:105470005A000020044800400121084A11700849E0
:10548000086000BF0649091F096801F040010029B2
:10549000F8D00021014A1170704700005A00002026
:1054A0000448004030B501240C4D2C7002688388FC
:1054B00000210CE0545C0A4D2C6000BF084C241FF6
:1054C000246804F04004002CF8D04C1CA1B299428E
:1054D000F0DB0024014D2C7030BD00005A0000208C
:1054E0000448004010B504464D484E4909784454DC
:1054F0000078AA287ED14B480078401C49490870A2
:1055000008460078082875DB0020087044480078B9
:10551000AA280BD042484078012807D007214048EC
:10552000FCF70EF83E49C979884278D13C480078AA
:105530003D4908703A48407848703948807888700A
:105540003748C078C87036480079087134484079C7
:1055500048713348807988713148C079C8710846EC
:105560000078AA280BD008464078012807D00721E8
:105570002D48FBF7E5FF2C49C97988424AD12B48D1
:10558000007810B90120294908702848007865285A
:1055900002D1012025490870AA20254908700C2055
:1055A00048702248007888700120C87008714871DE
:1055B00007200872EE2048731B488079312802D1F9
:1055C0000320C87202E004201949C8721648807886
:1055D000174988711448C078C871134840794872D7
:1055E0001148007988720C211148FBF7A9FF104976
:1055F000087300E013E00F48808818B10E220D48B0
:10560000FEF7F5FB0C48808820B10E2208490A48B5
:10561000FEF7EDFB05480078401C0449087010BDFA
:105620002A0200203202002020020020280200204E
:1056300038170020F80100200802002000000000B8
:105640000000000001020304060708090000000032
:1056500001020304323031393032363030303130EB
:10566000000000008456000800000020D80200005E
:1056700088060008A4570008D8020020B0290000BE
:105680009C3100081144A24A043210720113B7047D
:10569000222012C84B7F050841691C720A4B47063D
:1056A0001C0B180F0724C1B205B232B264B420BF7C
:1056B000021A01341A094C1A04081A06041A0704BB
:1056C0001A08041A0B041212120C120E1A0FB61238
:1056D000051A11047A134C79502A08985964390C28
:1056E000896A1AF26B89AE01160930B03A02021AC1
:1056F000033ABA04B01A09B2120C3A0DB01A0A10E1
:105700003A0102DA10B04B5809B03ABC08691640A9
:1057100017401FA41F08206C20D02034219821FCA2
:10572000216022C42228230B20B401C4C14BD0071E
:10573000044113B80A1B20F43B290441CB88121002
:10574000137C142C20701660021DC82B4817244DA2
:10575000F4013C19082B301B0812143A44084DF48C
:1057600001381D084B2C1F183A40084DF401342114
:105770000819CA39183A3C0819404A25084B242709
:105780001818103AF67C8A6F43CFD98BE00D0DAA1A
:105790000C01010009121401070101FF01EE13546D
:0457A00056C20800E5
:04000005080000ED02
:00000001FF
